{
  "contracts/WebpageStorage.sol": {
    "WebpageStorage": {
      "abi": [
        {
          "anonymous": false,
          "inputs": [
            {
              "indexed": true,
              "internalType": "uint256",
              "name": "proposalId",
              "type": "uint256"
            },
            {
              "indexed": false,
              "internalType": "address",
              "name": "proposer",
              "type": "address"
            },
            {
              "indexed": false,
              "internalType": "string",
              "name": "description",
              "type": "string"
            }
          ],
          "name": "ProposalCreated",
          "type": "event"
        },
        {
          "anonymous": false,
          "inputs": [
            {
              "indexed": true,
              "internalType": "uint256",
              "name": "proposalId",
              "type": "uint256"
            }
          ],
          "name": "ProposalExecuted",
          "type": "event"
        },
        {
          "anonymous": false,
          "inputs": [
            {
              "indexed": true,
              "internalType": "uint256",
              "name": "proposalId",
              "type": "uint256"
            },
            {
              "indexed": false,
              "internalType": "address",
              "name": "voter",
              "type": "address"
            },
            {
              "indexed": false,
              "internalType": "bool",
              "name": "support",
              "type": "bool"
            }
          ],
          "name": "Voted",
          "type": "event"
        },
        {
          "anonymous": false,
          "inputs": [
            {
              "indexed": false,
              "internalType": "string",
              "name": "domain",
              "type": "string"
            },
            {
              "indexed": false,
              "internalType": "string",
              "name": "cid",
              "type": "string"
            },
            {
              "indexed": false,
              "internalType": "address",
              "name": "owner",
              "type": "address"
            },
            {
              "indexed": false,
              "internalType": "uint256",
              "name": "timestamp",
              "type": "uint256"
            }
          ],
          "name": "WebpageStored",
          "type": "event"
        },
        {
          "inputs": [
            {
              "internalType": "address",
              "name": "user",
              "type": "address"
            }
          ],
          "name": "getUserWebpages",
          "outputs": [
            {
              "internalType": "string[]",
              "name": "",
              "type": "string[]"
            }
          ],
          "stateMutability": "view",
          "type": "function"
        },
        {
          "inputs": [
            {
              "internalType": "string",
              "name": "domain",
              "type": "string"
            }
          ],
          "name": "getWebpage",
          "outputs": [
            {
              "internalType": "string",
              "name": "",
              "type": "string"
            },
            {
              "internalType": "address",
              "name": "",
              "type": "address"
            },
            {
              "internalType": "uint256",
              "name": "",
              "type": "uint256"
            }
          ],
          "stateMutability": "view",
          "type": "function"
        },
        {
          "inputs": [
            {
              "internalType": "string",
              "name": "domain",
              "type": "string"
            },
            {
              "internalType": "string",
              "name": "cid",
              "type": "string"
            }
          ],
          "name": "storeWebpage",
          "outputs": [],
          "stateMutability": "nonpayable",
          "type": "function"
        },
        {
          "inputs": [
            {
              "internalType": "address",
              "name": "",
              "type": "address"
            },
            {
              "internalType": "uint256",
              "name": "",
              "type": "uint256"
            }
          ],
          "name": "userWebpages",
          "outputs": [
            {
              "internalType": "string",
              "name": "",
              "type": "string"
            }
          ],
          "stateMutability": "view",
          "type": "function"
        },
        {
          "inputs": [
            {
              "internalType": "string",
              "name": "",
              "type": "string"
            }
          ],
          "name": "webpages",
          "outputs": [
            {
              "internalType": "string",
              "name": "cid",
              "type": "string"
            },
            {
              "internalType": "address",
              "name": "owner",
              "type": "address"
            },
            {
              "internalType": "uint256",
              "name": "timestamp",
              "type": "uint256"
            }
          ],
          "stateMutability": "view",
          "type": "function"
        }
      ],
      "evm": {
        "bytecode": {
          "linkReferences": {},
          "object": "6080604052348015600f57600080fd5b506111b68061001f6000396000f3fe608060405234801561001057600080fd5b50600436106100575760003560e01c8063221001181461005c57806334b22dca1461007857806360730a8a146100a8578063b4ba0898146100da578063fc2277831461010c575b600080fd5b610076600480360381019061007191906108cb565b61013c565b005b610092600480360381019061008d91906109a1565b610330565b60405161009f9190610b0f565b60405180910390f35b6100c260048036038101906100bd9190610b31565b610448565b6040516100d193929190610bec565b60405180910390f35b6100f460048036038101906100ef9190610b31565b610530565b60405161010393929190610bec565b60405180910390f35b61012660048036038101906101219190610c56565b6106b8565b6040516101339190610c96565b60405180910390f35b6000825111610180576040517f08c379a000000000000000000000000000000000000000000000000000000000815260040161017790610d04565b60405180910390fd5b60008151116101c4576040517f08c379a00000000000000000000000000000000000000000000000000000000081526004016101bb90610d70565b60405180910390fd5b60405180606001604052808281526020013373ffffffffffffffffffffffffffffffffffffffff168152602001428152506000836040516102059190610dcc565b908152602001604051809103902060008201518160000190816102289190610fef565b5060208201518160010160006101000a81548173ffffffffffffffffffffffffffffffffffffffff021916908373ffffffffffffffffffffffffffffffffffffffff16021790555060408201518160020155905050600160003373ffffffffffffffffffffffffffffffffffffffff1673ffffffffffffffffffffffffffffffffffffffff168152602001908152602001600020829080600181540180825580915050600190039060005260206000200160009091909190915090816102ee9190610fef565b507f63c56360acb3e2e242eacda30627d5f9910ebe045bb8a58737cc0cad4d854ea68282334260405161032494939291906110c1565b60405180910390a15050565b6060600160008373ffffffffffffffffffffffffffffffffffffffff1673ffffffffffffffffffffffffffffffffffffffff168152602001908152602001600020805480602002602001604051908101604052809291908181526020016000905b8282101561043d5783829060005260206000200180546103b090610e12565b80601f01602080910402602001604051908101604052809291908181526020018280546103dc90610e12565b80156104295780601f106103fe57610100808354040283529160200191610429565b820191906000526020600020905b81548152906001019060200180831161040c57829003601f168201915b505050505081526020019060010190610391565b505050509050919050565b60008180516020810182018051848252602083016020850120818352809550505050505060009150905080600001805461048190610e12565b80601f01602080910402602001604051908101604052809291908181526020018280546104ad90610e12565b80156104fa5780601f106104cf576101008083540402835291602001916104fa565b820191906000526020600020905b8154815290600101906020018083116104dd57829003601f168201915b5050505050908060010160009054906101000a900473ffffffffffffffffffffffffffffffffffffffff16908060020154905083565b6060600080600080856040516105469190610dcc565b908152602001604051809103902060405180606001604052908160008201805461056f90610e12565b80601f016020809104026020016040519081016040528092919081815260200182805461059b90610e12565b80156105e85780601f106105bd576101008083540402835291602001916105e8565b820191906000526020600020905b8154815290600101906020018083116105cb57829003601f168201915b505050505081526020016001820160009054906101000a900473ffffffffffffffffffffffffffffffffffffffff1673ffffffffffffffffffffffffffffffffffffffff1673ffffffffffffffffffffffffffffffffffffffff168152602001600282015481525050905060008160000151511161069b576040517f08c379a000000000000000000000000000000000000000000000000000000000815260040161069290611160565b60405180910390fd5b806000015181602001518260400151935093509350509193909250565b600160205281600052604060002081815481106106d457600080fd5b906000526020600020016000915091505080546106f090610e12565b80601f016020809104026020016040519081016040528092919081815260200182805461071c90610e12565b80156107695780601f1061073e57610100808354040283529160200191610769565b820191906000526020600020905b81548152906001019060200180831161074c57829003601f168201915b505050505081565b6000604051905090565b600080fd5b600080fd5b600080fd5b600080fd5b6000601f19601f8301169050919050565b7f4e487b7100000000000000000000000000000000000000000000000000000000600052604160045260246000fd5b6107d88261078f565b810181811067ffffffffffffffff821117156107f7576107f66107a0565b5b80604052505050565b600061080a610771565b905061081682826107cf565b919050565b600067ffffffffffffffff821115610836576108356107a0565b5b61083f8261078f565b9050602081019050919050565b82818337600083830152505050565b600061086e6108698461081b565b610800565b90508281526020810184848401111561088a5761088961078a565b5b61089584828561084c565b509392505050565b600082601f8301126108b2576108b1610785565b5b81356108c284826020860161085b565b91505092915050565b600080604083850312156108e2576108e161077b565b5b600083013567ffffffffffffffff811115610900576108ff610780565b5b61090c8582860161089d565b925050602083013567ffffffffffffffff81111561092d5761092c610780565b5b6109398582860161089d565b9150509250929050565b600073ffffffffffffffffffffffffffffffffffffffff82169050919050565b600061096e82610943565b9050919050565b61097e81610963565b811461098957600080fd5b50565b60008135905061099b81610975565b92915050565b6000602082840312156109b7576109b661077b565b5b60006109c58482850161098c565b91505092915050565b600081519050919050565b600082825260208201905092915050565b6000819050602082019050919050565b600081519050919050565b600082825260208201905092915050565b60005b83811015610a34578082015181840152602081019050610a19565b60008484015250505050565b6000610a4b826109fa565b610a558185610a05565b9350610a65818560208601610a16565b610a6e8161078f565b840191505092915050565b6000610a858383610a40565b905092915050565b6000602082019050919050565b6000610aa5826109ce565b610aaf81856109d9565b935083602082028501610ac1856109ea565b8060005b85811015610afd5784840389528151610ade8582610a79565b9450610ae983610a8d565b925060208a01995050600181019050610ac5565b50829750879550505050505092915050565b60006020820190508181036000830152610b298184610a9a565b905092915050565b600060208284031215610b4757610b4661077b565b5b600082013567ffffffffffffffff811115610b6557610b64610780565b5b610b718482850161089d565b91505092915050565b600082825260208201905092915050565b6000610b96826109fa565b610ba08185610b7a565b9350610bb0818560208601610a16565b610bb98161078f565b840191505092915050565b610bcd81610963565b82525050565b6000819050919050565b610be681610bd3565b82525050565b60006060820190508181036000830152610c068186610b8b565b9050610c156020830185610bc4565b610c226040830184610bdd565b949350505050565b610c3381610bd3565b8114610c3e57600080fd5b50565b600081359050610c5081610c2a565b92915050565b60008060408385031215610c6d57610c6c61077b565b5b6000610c7b8582860161098c565b9250506020610c8c85828601610c41565b9150509250929050565b60006020820190508181036000830152610cb08184610b8b565b905092915050565b7f446f6d61696e2063616e6e6f7420626520656d70747900000000000000000000600082015250565b6000610cee601683610b7a565b9150610cf982610cb8565b602082019050919050565b60006020820190508181036000830152610d1d81610ce1565b9050919050565b7f4349442063616e6e6f7420626520656d70747900000000000000000000000000600082015250565b6000610d5a601383610b7a565b9150610d6582610d24565b602082019050919050565b60006020820190508181036000830152610d8981610d4d565b9050919050565b600081905092915050565b6000610da6826109fa565b610db08185610d90565b9350610dc0818560208601610a16565b80840191505092915050565b6000610dd88284610d9b565b915081905092915050565b7f4e487b7100000000000000000000000000000000000000000000000000000000600052602260045260246000fd5b60006002820490506001821680610e2a57607f821691505b602082108103610e3d57610e3c610de3565b5b50919050565b60008190508160005260206000209050919050565b60006020601f8301049050919050565b600082821b905092915050565b600060088302610ea57fffffffffffffffffffffffffffffffffffffffffffffffffffffffffffffffff82610e68565b610eaf8683610e68565b95508019841693508086168417925050509392505050565b6000819050919050565b6000610eec610ee7610ee284610bd3565b610ec7565b610bd3565b9050919050565b6000819050919050565b610f0683610ed1565b610f1a610f1282610ef3565b848454610e75565b825550505050565b600090565b610f2f610f22565b610f3a818484610efd565b505050565b5b81811015610f5e57610f53600082610f27565b600181019050610f40565b5050565b601f821115610fa357610f7481610e43565b610f7d84610e58565b81016020851015610f8c578190505b610fa0610f9885610e58565b830182610f3f565b50505b505050565b600082821c905092915050565b6000610fc660001984600802610fa8565b1980831691505092915050565b6000610fdf8383610fb5565b9150826002028217905092915050565b610ff8826109fa565b67ffffffffffffffff811115611011576110106107a0565b5b61101b8254610e12565b611026828285610f62565b600060209050601f8311600181146110595760008415611047578287015190505b6110518582610fd3565b8655506110b9565b601f19841661106786610e43565b60005b8281101561108f5784890151825560018201915060208501945060208101905061106a565b868310156110ac57848901516110a8601f891682610fb5565b8355505b6001600288020188555050505b505050505050565b600060808201905081810360008301526110db8187610b8b565b905081810360208301526110ef8186610b8b565b90506110fe6040830185610bc4565b61110b6060830184610bdd565b95945050505050565b7f57656270616765206e6f7420666f756e64000000000000000000000000000000600082015250565b600061114a601183610b7a565b915061115582611114565b602082019050919050565b600060208201905081810360008301526111798161113d565b905091905056fea2646970667358221220ae1a0ff22dba9a3021542092228cb616b87183c036605bd880e0eb6b656adcf364736f6c634300081b0033",
          "opcodes": "PUSH1 0x80 PUSH1 0x40 MSTORE CALLVALUE DUP1 ISZERO PUSH1 0xF JUMPI PUSH1 0x0 DUP1 REVERT JUMPDEST POP PUSH2 0x11B6 DUP1 PUSH2 0x1F PUSH1 0x0 CODECOPY PUSH1 0x0 RETURN INVALID PUSH1 0x80 PUSH1 0x40 MSTORE CALLVALUE DUP1 ISZERO PUSH2 0x10 JUMPI PUSH1 0x0 DUP1 REVERT JUMPDEST POP PUSH1 0x4 CALLDATASIZE LT PUSH2 0x57 JUMPI PUSH1 0x0 CALLDATALOAD PUSH1 0xE0 SHR DUP1 PUSH4 0x22100118 EQ PUSH2 0x5C JUMPI DUP1 PUSH4 0x34B22DCA EQ PUSH2 0x78 JUMPI DUP1 PUSH4 0x60730A8A EQ PUSH2 0xA8 JUMPI DUP1 PUSH4 0xB4BA0898 EQ PUSH2 0xDA JUMPI DUP1 PUSH4 0xFC227783 EQ PUSH2 0x10C JUMPI JUMPDEST PUSH1 0x0 DUP1 REVERT JUMPDEST PUSH2 0x76 PUSH1 0x4 DUP1 CALLDATASIZE SUB DUP2 ADD SWAP1 PUSH2 0x71 SWAP2 SWAP1 PUSH2 0x8CB JUMP JUMPDEST PUSH2 0x13C JUMP JUMPDEST STOP JUMPDEST PUSH2 0x92 PUSH1 0x4 DUP1 CALLDATASIZE SUB DUP2 ADD SWAP1 PUSH2 0x8D SWAP2 SWAP1 PUSH2 0x9A1 JUMP JUMPDEST PUSH2 0x330 JUMP JUMPDEST PUSH1 0x40 MLOAD PUSH2 0x9F SWAP2 SWAP1 PUSH2 0xB0F JUMP JUMPDEST PUSH1 0x40 MLOAD DUP1 SWAP2 SUB SWAP1 RETURN JUMPDEST PUSH2 0xC2 PUSH1 0x4 DUP1 CALLDATASIZE SUB DUP2 ADD SWAP1 PUSH2 0xBD SWAP2 SWAP1 PUSH2 0xB31 JUMP JUMPDEST PUSH2 0x448 JUMP JUMPDEST PUSH1 0x40 MLOAD PUSH2 0xD1 SWAP4 SWAP3 SWAP2 SWAP1 PUSH2 0xBEC JUMP JUMPDEST PUSH1 0x40 MLOAD DUP1 SWAP2 SUB SWAP1 RETURN JUMPDEST PUSH2 0xF4 PUSH1 0x4 DUP1 CALLDATASIZE SUB DUP2 ADD SWAP1 PUSH2 0xEF SWAP2 SWAP1 PUSH2 0xB31 JUMP JUMPDEST PUSH2 0x530 JUMP JUMPDEST PUSH1 0x40 MLOAD PUSH2 0x103 SWAP4 SWAP3 SWAP2 SWAP1 PUSH2 0xBEC JUMP JUMPDEST PUSH1 0x40 MLOAD DUP1 SWAP2 SUB SWAP1 RETURN JUMPDEST PUSH2 0x126 PUSH1 0x4 DUP1 CALLDATASIZE SUB DUP2 ADD SWAP1 PUSH2 0x121 SWAP2 SWAP1 PUSH2 0xC56 JUMP JUMPDEST PUSH2 0x6B8 JUMP JUMPDEST PUSH1 0x40 MLOAD PUSH2 0x133 SWAP2 SWAP1 PUSH2 0xC96 JUMP JUMPDEST PUSH1 0x40 MLOAD DUP1 SWAP2 SUB SWAP1 RETURN JUMPDEST PUSH1 0x0 DUP3 MLOAD GT PUSH2 0x180 JUMPI PUSH1 0x40 MLOAD PUSH32 0x8C379A000000000000000000000000000000000000000000000000000000000 DUP2 MSTORE PUSH1 0x4 ADD PUSH2 0x177 SWAP1 PUSH2 0xD04 JUMP JUMPDEST PUSH1 0x40 MLOAD DUP1 SWAP2 SUB SWAP1 REVERT JUMPDEST PUSH1 0x0 DUP2 MLOAD GT PUSH2 0x1C4 JUMPI PUSH1 0x40 MLOAD PUSH32 0x8C379A000000000000000000000000000000000000000000000000000000000 DUP2 MSTORE PUSH1 0x4 ADD PUSH2 0x1BB SWAP1 PUSH2 0xD70 JUMP JUMPDEST PUSH1 0x40 MLOAD DUP1 SWAP2 SUB SWAP1 REVERT JUMPDEST PUSH1 0x40 MLOAD DUP1 PUSH1 0x60 ADD PUSH1 0x40 MSTORE DUP1 DUP3 DUP2 MSTORE PUSH1 0x20 ADD CALLER PUSH20 0xFFFFFFFFFFFFFFFFFFFFFFFFFFFFFFFFFFFFFFFF AND DUP2 MSTORE PUSH1 0x20 ADD TIMESTAMP DUP2 MSTORE POP PUSH1 0x0 DUP4 PUSH1 0x40 MLOAD PUSH2 0x205 SWAP2 SWAP1 PUSH2 0xDCC JUMP JUMPDEST SWAP1 DUP2 MSTORE PUSH1 0x20 ADD PUSH1 0x40 MLOAD DUP1 SWAP2 SUB SWAP1 KECCAK256 PUSH1 0x0 DUP3 ADD MLOAD DUP2 PUSH1 0x0 ADD SWAP1 DUP2 PUSH2 0x228 SWAP2 SWAP1 PUSH2 0xFEF JUMP JUMPDEST POP PUSH1 0x20 DUP3 ADD MLOAD DUP2 PUSH1 0x1 ADD PUSH1 0x0 PUSH2 0x100 EXP DUP2 SLOAD DUP2 PUSH20 0xFFFFFFFFFFFFFFFFFFFFFFFFFFFFFFFFFFFFFFFF MUL NOT AND SWAP1 DUP4 PUSH20 0xFFFFFFFFFFFFFFFFFFFFFFFFFFFFFFFFFFFFFFFF AND MUL OR SWAP1 SSTORE POP PUSH1 0x40 DUP3 ADD MLOAD DUP2 PUSH1 0x2 ADD SSTORE SWAP1 POP POP PUSH1 0x1 PUSH1 0x0 CALLER PUSH20 0xFFFFFFFFFFFFFFFFFFFFFFFFFFFFFFFFFFFFFFFF AND PUSH20 0xFFFFFFFFFFFFFFFFFFFFFFFFFFFFFFFFFFFFFFFF AND DUP2 MSTORE PUSH1 0x20 ADD SWAP1 DUP2 MSTORE PUSH1 0x20 ADD PUSH1 0x0 KECCAK256 DUP3 SWAP1 DUP1 PUSH1 0x1 DUP2 SLOAD ADD DUP1 DUP3 SSTORE DUP1 SWAP2 POP POP PUSH1 0x1 SWAP1 SUB SWAP1 PUSH1 0x0 MSTORE PUSH1 0x20 PUSH1 0x0 KECCAK256 ADD PUSH1 0x0 SWAP1 SWAP2 SWAP1 SWAP2 SWAP1 SWAP2 POP SWAP1 DUP2 PUSH2 0x2EE SWAP2 SWAP1 PUSH2 0xFEF JUMP JUMPDEST POP PUSH32 0x63C56360ACB3E2E242EACDA30627D5F9910EBE045BB8A58737CC0CAD4D854EA6 DUP3 DUP3 CALLER TIMESTAMP PUSH1 0x40 MLOAD PUSH2 0x324 SWAP5 SWAP4 SWAP3 SWAP2 SWAP1 PUSH2 0x10C1 JUMP JUMPDEST PUSH1 0x40 MLOAD DUP1 SWAP2 SUB SWAP1 LOG1 POP POP JUMP JUMPDEST PUSH1 0x60 PUSH1 0x1 PUSH1 0x0 DUP4 PUSH20 0xFFFFFFFFFFFFFFFFFFFFFFFFFFFFFFFFFFFFFFFF AND PUSH20 0xFFFFFFFFFFFFFFFFFFFFFFFFFFFFFFFFFFFFFFFF AND DUP2 MSTORE PUSH1 0x20 ADD SWAP1 DUP2 MSTORE PUSH1 0x20 ADD PUSH1 0x0 KECCAK256 DUP1 SLOAD DUP1 PUSH1 0x20 MUL PUSH1 0x20 ADD PUSH1 0x40 MLOAD SWAP1 DUP2 ADD PUSH1 0x40 MSTORE DUP1 SWAP3 SWAP2 SWAP1 DUP2 DUP2 MSTORE PUSH1 0x20 ADD PUSH1 0x0 SWAP1 JUMPDEST DUP3 DUP3 LT ISZERO PUSH2 0x43D JUMPI DUP4 DUP3 SWAP1 PUSH1 0x0 MSTORE PUSH1 0x20 PUSH1 0x0 KECCAK256 ADD DUP1 SLOAD PUSH2 0x3B0 SWAP1 PUSH2 0xE12 JUMP JUMPDEST DUP1 PUSH1 0x1F ADD PUSH1 0x20 DUP1 SWAP2 DIV MUL PUSH1 0x20 ADD PUSH1 0x40 MLOAD SWAP1 DUP2 ADD PUSH1 0x40 MSTORE DUP1 SWAP3 SWAP2 SWAP1 DUP2 DUP2 MSTORE PUSH1 0x20 ADD DUP3 DUP1 SLOAD PUSH2 0x3DC SWAP1 PUSH2 0xE12 JUMP JUMPDEST DUP1 ISZERO PUSH2 0x429 JUMPI DUP1 PUSH1 0x1F LT PUSH2 0x3FE JUMPI PUSH2 0x100 DUP1 DUP4 SLOAD DIV MUL DUP4 MSTORE SWAP2 PUSH1 0x20 ADD SWAP2 PUSH2 0x429 JUMP JUMPDEST DUP3 ADD SWAP2 SWAP1 PUSH1 0x0 MSTORE PUSH1 0x20 PUSH1 0x0 KECCAK256 SWAP1 JUMPDEST DUP2 SLOAD DUP2 MSTORE SWAP1 PUSH1 0x1 ADD SWAP1 PUSH1 0x20 ADD DUP1 DUP4 GT PUSH2 0x40C JUMPI DUP3 SWAP1 SUB PUSH1 0x1F AND DUP3 ADD SWAP2 JUMPDEST POP POP POP POP POP DUP2 MSTORE PUSH1 0x20 ADD SWAP1 PUSH1 0x1 ADD SWAP1 PUSH2 0x391 JUMP JUMPDEST POP POP POP POP SWAP1 POP SWAP2 SWAP1 POP JUMP JUMPDEST PUSH1 0x0 DUP2 DUP1 MLOAD PUSH1 0x20 DUP2 ADD DUP3 ADD DUP1 MLOAD DUP5 DUP3 MSTORE PUSH1 0x20 DUP4 ADD PUSH1 0x20 DUP6 ADD KECCAK256 DUP2 DUP4 MSTORE DUP1 SWAP6 POP POP POP POP POP POP PUSH1 0x0 SWAP2 POP SWAP1 POP DUP1 PUSH1 0x0 ADD DUP1 SLOAD PUSH2 0x481 SWAP1 PUSH2 0xE12 JUMP JUMPDEST DUP1 PUSH1 0x1F ADD PUSH1 0x20 DUP1 SWAP2 DIV MUL PUSH1 0x20 ADD PUSH1 0x40 MLOAD SWAP1 DUP2 ADD PUSH1 0x40 MSTORE DUP1 SWAP3 SWAP2 SWAP1 DUP2 DUP2 MSTORE PUSH1 0x20 ADD DUP3 DUP1 SLOAD PUSH2 0x4AD SWAP1 PUSH2 0xE12 JUMP JUMPDEST DUP1 ISZERO PUSH2 0x4FA JUMPI DUP1 PUSH1 0x1F LT PUSH2 0x4CF JUMPI PUSH2 0x100 DUP1 DUP4 SLOAD DIV MUL DUP4 MSTORE SWAP2 PUSH1 0x20 ADD SWAP2 PUSH2 0x4FA JUMP JUMPDEST DUP3 ADD SWAP2 SWAP1 PUSH1 0x0 MSTORE PUSH1 0x20 PUSH1 0x0 KECCAK256 SWAP1 JUMPDEST DUP2 SLOAD DUP2 MSTORE SWAP1 PUSH1 0x1 ADD SWAP1 PUSH1 0x20 ADD DUP1 DUP4 GT PUSH2 0x4DD JUMPI DUP3 SWAP1 SUB PUSH1 0x1F AND DUP3 ADD SWAP2 JUMPDEST POP POP POP POP POP SWAP1 DUP1 PUSH1 0x1 ADD PUSH1 0x0 SWAP1 SLOAD SWAP1 PUSH2 0x100 EXP SWAP1 DIV PUSH20 0xFFFFFFFFFFFFFFFFFFFFFFFFFFFFFFFFFFFFFFFF AND SWAP1 DUP1 PUSH1 0x2 ADD SLOAD SWAP1 POP DUP4 JUMP JUMPDEST PUSH1 0x60 PUSH1 0x0 DUP1 PUSH1 0x0 DUP1 DUP6 PUSH1 0x40 MLOAD PUSH2 0x546 SWAP2 SWAP1 PUSH2 0xDCC JUMP JUMPDEST SWAP1 DUP2 MSTORE PUSH1 0x20 ADD PUSH1 0x40 MLOAD DUP1 SWAP2 SUB SWAP1 KECCAK256 PUSH1 0x40 MLOAD DUP1 PUSH1 0x60 ADD PUSH1 0x40 MSTORE SWAP1 DUP2 PUSH1 0x0 DUP3 ADD DUP1 SLOAD PUSH2 0x56F SWAP1 PUSH2 0xE12 JUMP JUMPDEST DUP1 PUSH1 0x1F ADD PUSH1 0x20 DUP1 SWAP2 DIV MUL PUSH1 0x20 ADD PUSH1 0x40 MLOAD SWAP1 DUP2 ADD PUSH1 0x40 MSTORE DUP1 SWAP3 SWAP2 SWAP1 DUP2 DUP2 MSTORE PUSH1 0x20 ADD DUP3 DUP1 SLOAD PUSH2 0x59B SWAP1 PUSH2 0xE12 JUMP JUMPDEST DUP1 ISZERO PUSH2 0x5E8 JUMPI DUP1 PUSH1 0x1F LT PUSH2 0x5BD JUMPI PUSH2 0x100 DUP1 DUP4 SLOAD DIV MUL DUP4 MSTORE SWAP2 PUSH1 0x20 ADD SWAP2 PUSH2 0x5E8 JUMP JUMPDEST DUP3 ADD SWAP2 SWAP1 PUSH1 0x0 MSTORE PUSH1 0x20 PUSH1 0x0 KECCAK256 SWAP1 JUMPDEST DUP2 SLOAD DUP2 MSTORE SWAP1 PUSH1 0x1 ADD SWAP1 PUSH1 0x20 ADD DUP1 DUP4 GT PUSH2 0x5CB JUMPI DUP3 SWAP1 SUB PUSH1 0x1F AND DUP3 ADD SWAP2 JUMPDEST POP POP POP POP POP DUP2 MSTORE PUSH1 0x20 ADD PUSH1 0x1 DUP3 ADD PUSH1 0x0 SWAP1 SLOAD SWAP1 PUSH2 0x100 EXP SWAP1 DIV PUSH20 0xFFFFFFFFFFFFFFFFFFFFFFFFFFFFFFFFFFFFFFFF AND PUSH20 0xFFFFFFFFFFFFFFFFFFFFFFFFFFFFFFFFFFFFFFFF AND PUSH20 0xFFFFFFFFFFFFFFFFFFFFFFFFFFFFFFFFFFFFFFFF AND DUP2 MSTORE PUSH1 0x20 ADD PUSH1 0x2 DUP3 ADD SLOAD DUP2 MSTORE POP POP SWAP1 POP PUSH1 0x0 DUP2 PUSH1 0x0 ADD MLOAD MLOAD GT PUSH2 0x69B JUMPI PUSH1 0x40 MLOAD PUSH32 0x8C379A000000000000000000000000000000000000000000000000000000000 DUP2 MSTORE PUSH1 0x4 ADD PUSH2 0x692 SWAP1 PUSH2 0x1160 JUMP JUMPDEST PUSH1 0x40 MLOAD DUP1 SWAP2 SUB SWAP1 REVERT JUMPDEST DUP1 PUSH1 0x0 ADD MLOAD DUP2 PUSH1 0x20 ADD MLOAD DUP3 PUSH1 0x40 ADD MLOAD SWAP4 POP SWAP4 POP SWAP4 POP POP SWAP2 SWAP4 SWAP1 SWAP3 POP JUMP JUMPDEST PUSH1 0x1 PUSH1 0x20 MSTORE DUP2 PUSH1 0x0 MSTORE PUSH1 0x40 PUSH1 0x0 KECCAK256 DUP2 DUP2 SLOAD DUP2 LT PUSH2 0x6D4 JUMPI PUSH1 0x0 DUP1 REVERT JUMPDEST SWAP1 PUSH1 0x0 MSTORE PUSH1 0x20 PUSH1 0x0 KECCAK256 ADD PUSH1 0x0 SWAP2 POP SWAP2 POP POP DUP1 SLOAD PUSH2 0x6F0 SWAP1 PUSH2 0xE12 JUMP JUMPDEST DUP1 PUSH1 0x1F ADD PUSH1 0x20 DUP1 SWAP2 DIV MUL PUSH1 0x20 ADD PUSH1 0x40 MLOAD SWAP1 DUP2 ADD PUSH1 0x40 MSTORE DUP1 SWAP3 SWAP2 SWAP1 DUP2 DUP2 MSTORE PUSH1 0x20 ADD DUP3 DUP1 SLOAD PUSH2 0x71C SWAP1 PUSH2 0xE12 JUMP JUMPDEST DUP1 ISZERO PUSH2 0x769 JUMPI DUP1 PUSH1 0x1F LT PUSH2 0x73E JUMPI PUSH2 0x100 DUP1 DUP4 SLOAD DIV MUL DUP4 MSTORE SWAP2 PUSH1 0x20 ADD SWAP2 PUSH2 0x769 JUMP JUMPDEST DUP3 ADD SWAP2 SWAP1 PUSH1 0x0 MSTORE PUSH1 0x20 PUSH1 0x0 KECCAK256 SWAP1 JUMPDEST DUP2 SLOAD DUP2 MSTORE SWAP1 PUSH1 0x1 ADD SWAP1 PUSH1 0x20 ADD DUP1 DUP4 GT PUSH2 0x74C JUMPI DUP3 SWAP1 SUB PUSH1 0x1F AND DUP3 ADD SWAP2 JUMPDEST POP POP POP POP POP DUP2 JUMP JUMPDEST PUSH1 0x0 PUSH1 0x40 MLOAD SWAP1 POP SWAP1 JUMP JUMPDEST PUSH1 0x0 DUP1 REVERT JUMPDEST PUSH1 0x0 DUP1 REVERT JUMPDEST PUSH1 0x0 DUP1 REVERT JUMPDEST PUSH1 0x0 DUP1 REVERT JUMPDEST PUSH1 0x0 PUSH1 0x1F NOT PUSH1 0x1F DUP4 ADD AND SWAP1 POP SWAP2 SWAP1 POP JUMP JUMPDEST PUSH32 0x4E487B7100000000000000000000000000000000000000000000000000000000 PUSH1 0x0 MSTORE PUSH1 0x41 PUSH1 0x4 MSTORE PUSH1 0x24 PUSH1 0x0 REVERT JUMPDEST PUSH2 0x7D8 DUP3 PUSH2 0x78F JUMP JUMPDEST DUP2 ADD DUP2 DUP2 LT PUSH8 0xFFFFFFFFFFFFFFFF DUP3 GT OR ISZERO PUSH2 0x7F7 JUMPI PUSH2 0x7F6 PUSH2 0x7A0 JUMP JUMPDEST JUMPDEST DUP1 PUSH1 0x40 MSTORE POP POP POP JUMP JUMPDEST PUSH1 0x0 PUSH2 0x80A PUSH2 0x771 JUMP JUMPDEST SWAP1 POP PUSH2 0x816 DUP3 DUP3 PUSH2 0x7CF JUMP JUMPDEST SWAP2 SWAP1 POP JUMP JUMPDEST PUSH1 0x0 PUSH8 0xFFFFFFFFFFFFFFFF DUP3 GT ISZERO PUSH2 0x836 JUMPI PUSH2 0x835 PUSH2 0x7A0 JUMP JUMPDEST JUMPDEST PUSH2 0x83F DUP3 PUSH2 0x78F JUMP JUMPDEST SWAP1 POP PUSH1 0x20 DUP2 ADD SWAP1 POP SWAP2 SWAP1 POP JUMP JUMPDEST DUP3 DUP2 DUP4 CALLDATACOPY PUSH1 0x0 DUP4 DUP4 ADD MSTORE POP POP POP JUMP JUMPDEST PUSH1 0x0 PUSH2 0x86E PUSH2 0x869 DUP5 PUSH2 0x81B JUMP JUMPDEST PUSH2 0x800 JUMP JUMPDEST SWAP1 POP DUP3 DUP2 MSTORE PUSH1 0x20 DUP2 ADD DUP5 DUP5 DUP5 ADD GT ISZERO PUSH2 0x88A JUMPI PUSH2 0x889 PUSH2 0x78A JUMP JUMPDEST JUMPDEST PUSH2 0x895 DUP5 DUP3 DUP6 PUSH2 0x84C JUMP JUMPDEST POP SWAP4 SWAP3 POP POP POP JUMP JUMPDEST PUSH1 0x0 DUP3 PUSH1 0x1F DUP4 ADD SLT PUSH2 0x8B2 JUMPI PUSH2 0x8B1 PUSH2 0x785 JUMP JUMPDEST JUMPDEST DUP2 CALLDATALOAD PUSH2 0x8C2 DUP5 DUP3 PUSH1 0x20 DUP7 ADD PUSH2 0x85B JUMP JUMPDEST SWAP2 POP POP SWAP3 SWAP2 POP POP JUMP JUMPDEST PUSH1 0x0 DUP1 PUSH1 0x40 DUP4 DUP6 SUB SLT ISZERO PUSH2 0x8E2 JUMPI PUSH2 0x8E1 PUSH2 0x77B JUMP JUMPDEST JUMPDEST PUSH1 0x0 DUP4 ADD CALLDATALOAD PUSH8 0xFFFFFFFFFFFFFFFF DUP2 GT ISZERO PUSH2 0x900 JUMPI PUSH2 0x8FF PUSH2 0x780 JUMP JUMPDEST JUMPDEST PUSH2 0x90C DUP6 DUP3 DUP7 ADD PUSH2 0x89D JUMP JUMPDEST SWAP3 POP POP PUSH1 0x20 DUP4 ADD CALLDATALOAD PUSH8 0xFFFFFFFFFFFFFFFF DUP2 GT ISZERO PUSH2 0x92D JUMPI PUSH2 0x92C PUSH2 0x780 JUMP JUMPDEST JUMPDEST PUSH2 0x939 DUP6 DUP3 DUP7 ADD PUSH2 0x89D JUMP JUMPDEST SWAP2 POP POP SWAP3 POP SWAP3 SWAP1 POP JUMP JUMPDEST PUSH1 0x0 PUSH20 0xFFFFFFFFFFFFFFFFFFFFFFFFFFFFFFFFFFFFFFFF DUP3 AND SWAP1 POP SWAP2 SWAP1 POP JUMP JUMPDEST PUSH1 0x0 PUSH2 0x96E DUP3 PUSH2 0x943 JUMP JUMPDEST SWAP1 POP SWAP2 SWAP1 POP JUMP JUMPDEST PUSH2 0x97E DUP2 PUSH2 0x963 JUMP JUMPDEST DUP2 EQ PUSH2 0x989 JUMPI PUSH1 0x0 DUP1 REVERT JUMPDEST POP JUMP JUMPDEST PUSH1 0x0 DUP2 CALLDATALOAD SWAP1 POP PUSH2 0x99B DUP2 PUSH2 0x975 JUMP JUMPDEST SWAP3 SWAP2 POP POP JUMP JUMPDEST PUSH1 0x0 PUSH1 0x20 DUP3 DUP5 SUB SLT ISZERO PUSH2 0x9B7 JUMPI PUSH2 0x9B6 PUSH2 0x77B JUMP JUMPDEST JUMPDEST PUSH1 0x0 PUSH2 0x9C5 DUP5 DUP3 DUP6 ADD PUSH2 0x98C JUMP JUMPDEST SWAP2 POP POP SWAP3 SWAP2 POP POP JUMP JUMPDEST PUSH1 0x0 DUP2 MLOAD SWAP1 POP SWAP2 SWAP1 POP JUMP JUMPDEST PUSH1 0x0 DUP3 DUP3 MSTORE PUSH1 0x20 DUP3 ADD SWAP1 POP SWAP3 SWAP2 POP POP JUMP JUMPDEST PUSH1 0x0 DUP2 SWAP1 POP PUSH1 0x20 DUP3 ADD SWAP1 POP SWAP2 SWAP1 POP JUMP JUMPDEST PUSH1 0x0 DUP2 MLOAD SWAP1 POP SWAP2 SWAP1 POP JUMP JUMPDEST PUSH1 0x0 DUP3 DUP3 MSTORE PUSH1 0x20 DUP3 ADD SWAP1 POP SWAP3 SWAP2 POP POP JUMP JUMPDEST PUSH1 0x0 JUMPDEST DUP4 DUP2 LT ISZERO PUSH2 0xA34 JUMPI DUP1 DUP3 ADD MLOAD DUP2 DUP5 ADD MSTORE PUSH1 0x20 DUP2 ADD SWAP1 POP PUSH2 0xA19 JUMP JUMPDEST PUSH1 0x0 DUP5 DUP5 ADD MSTORE POP POP POP POP JUMP JUMPDEST PUSH1 0x0 PUSH2 0xA4B DUP3 PUSH2 0x9FA JUMP JUMPDEST PUSH2 0xA55 DUP2 DUP6 PUSH2 0xA05 JUMP JUMPDEST SWAP4 POP PUSH2 0xA65 DUP2 DUP6 PUSH1 0x20 DUP7 ADD PUSH2 0xA16 JUMP JUMPDEST PUSH2 0xA6E DUP2 PUSH2 0x78F JUMP JUMPDEST DUP5 ADD SWAP2 POP POP SWAP3 SWAP2 POP POP JUMP JUMPDEST PUSH1 0x0 PUSH2 0xA85 DUP4 DUP4 PUSH2 0xA40 JUMP JUMPDEST SWAP1 POP SWAP3 SWAP2 POP POP JUMP JUMPDEST PUSH1 0x0 PUSH1 0x20 DUP3 ADD SWAP1 POP SWAP2 SWAP1 POP JUMP JUMPDEST PUSH1 0x0 PUSH2 0xAA5 DUP3 PUSH2 0x9CE JUMP JUMPDEST PUSH2 0xAAF DUP2 DUP6 PUSH2 0x9D9 JUMP JUMPDEST SWAP4 POP DUP4 PUSH1 0x20 DUP3 MUL DUP6 ADD PUSH2 0xAC1 DUP6 PUSH2 0x9EA JUMP JUMPDEST DUP1 PUSH1 0x0 JUMPDEST DUP6 DUP2 LT ISZERO PUSH2 0xAFD JUMPI DUP5 DUP5 SUB DUP10 MSTORE DUP2 MLOAD PUSH2 0xADE DUP6 DUP3 PUSH2 0xA79 JUMP JUMPDEST SWAP5 POP PUSH2 0xAE9 DUP4 PUSH2 0xA8D JUMP JUMPDEST SWAP3 POP PUSH1 0x20 DUP11 ADD SWAP10 POP POP PUSH1 0x1 DUP2 ADD SWAP1 POP PUSH2 0xAC5 JUMP JUMPDEST POP DUP3 SWAP8 POP DUP8 SWAP6 POP POP POP POP POP POP SWAP3 SWAP2 POP POP JUMP JUMPDEST PUSH1 0x0 PUSH1 0x20 DUP3 ADD SWAP1 POP DUP2 DUP2 SUB PUSH1 0x0 DUP4 ADD MSTORE PUSH2 0xB29 DUP2 DUP5 PUSH2 0xA9A JUMP JUMPDEST SWAP1 POP SWAP3 SWAP2 POP POP JUMP JUMPDEST PUSH1 0x0 PUSH1 0x20 DUP3 DUP5 SUB SLT ISZERO PUSH2 0xB47 JUMPI PUSH2 0xB46 PUSH2 0x77B JUMP JUMPDEST JUMPDEST PUSH1 0x0 DUP3 ADD CALLDATALOAD PUSH8 0xFFFFFFFFFFFFFFFF DUP2 GT ISZERO PUSH2 0xB65 JUMPI PUSH2 0xB64 PUSH2 0x780 JUMP JUMPDEST JUMPDEST PUSH2 0xB71 DUP5 DUP3 DUP6 ADD PUSH2 0x89D JUMP JUMPDEST SWAP2 POP POP SWAP3 SWAP2 POP POP JUMP JUMPDEST PUSH1 0x0 DUP3 DUP3 MSTORE PUSH1 0x20 DUP3 ADD SWAP1 POP SWAP3 SWAP2 POP POP JUMP JUMPDEST PUSH1 0x0 PUSH2 0xB96 DUP3 PUSH2 0x9FA JUMP JUMPDEST PUSH2 0xBA0 DUP2 DUP6 PUSH2 0xB7A JUMP JUMPDEST SWAP4 POP PUSH2 0xBB0 DUP2 DUP6 PUSH1 0x20 DUP7 ADD PUSH2 0xA16 JUMP JUMPDEST PUSH2 0xBB9 DUP2 PUSH2 0x78F JUMP JUMPDEST DUP5 ADD SWAP2 POP POP SWAP3 SWAP2 POP POP JUMP JUMPDEST PUSH2 0xBCD DUP2 PUSH2 0x963 JUMP JUMPDEST DUP3 MSTORE POP POP JUMP JUMPDEST PUSH1 0x0 DUP2 SWAP1 POP SWAP2 SWAP1 POP JUMP JUMPDEST PUSH2 0xBE6 DUP2 PUSH2 0xBD3 JUMP JUMPDEST DUP3 MSTORE POP POP JUMP JUMPDEST PUSH1 0x0 PUSH1 0x60 DUP3 ADD SWAP1 POP DUP2 DUP2 SUB PUSH1 0x0 DUP4 ADD MSTORE PUSH2 0xC06 DUP2 DUP7 PUSH2 0xB8B JUMP JUMPDEST SWAP1 POP PUSH2 0xC15 PUSH1 0x20 DUP4 ADD DUP6 PUSH2 0xBC4 JUMP JUMPDEST PUSH2 0xC22 PUSH1 0x40 DUP4 ADD DUP5 PUSH2 0xBDD JUMP JUMPDEST SWAP5 SWAP4 POP POP POP POP JUMP JUMPDEST PUSH2 0xC33 DUP2 PUSH2 0xBD3 JUMP JUMPDEST DUP2 EQ PUSH2 0xC3E JUMPI PUSH1 0x0 DUP1 REVERT JUMPDEST POP JUMP JUMPDEST PUSH1 0x0 DUP2 CALLDATALOAD SWAP1 POP PUSH2 0xC50 DUP2 PUSH2 0xC2A JUMP JUMPDEST SWAP3 SWAP2 POP POP JUMP JUMPDEST PUSH1 0x0 DUP1 PUSH1 0x40 DUP4 DUP6 SUB SLT ISZERO PUSH2 0xC6D JUMPI PUSH2 0xC6C PUSH2 0x77B JUMP JUMPDEST JUMPDEST PUSH1 0x0 PUSH2 0xC7B DUP6 DUP3 DUP7 ADD PUSH2 0x98C JUMP JUMPDEST SWAP3 POP POP PUSH1 0x20 PUSH2 0xC8C DUP6 DUP3 DUP7 ADD PUSH2 0xC41 JUMP JUMPDEST SWAP2 POP POP SWAP3 POP SWAP3 SWAP1 POP JUMP JUMPDEST PUSH1 0x0 PUSH1 0x20 DUP3 ADD SWAP1 POP DUP2 DUP2 SUB PUSH1 0x0 DUP4 ADD MSTORE PUSH2 0xCB0 DUP2 DUP5 PUSH2 0xB8B JUMP JUMPDEST SWAP1 POP SWAP3 SWAP2 POP POP JUMP JUMPDEST PUSH32 0x446F6D61696E2063616E6E6F7420626520656D70747900000000000000000000 PUSH1 0x0 DUP3 ADD MSTORE POP JUMP JUMPDEST PUSH1 0x0 PUSH2 0xCEE PUSH1 0x16 DUP4 PUSH2 0xB7A JUMP JUMPDEST SWAP2 POP PUSH2 0xCF9 DUP3 PUSH2 0xCB8 JUMP JUMPDEST PUSH1 0x20 DUP3 ADD SWAP1 POP SWAP2 SWAP1 POP JUMP JUMPDEST PUSH1 0x0 PUSH1 0x20 DUP3 ADD SWAP1 POP DUP2 DUP2 SUB PUSH1 0x0 DUP4 ADD MSTORE PUSH2 0xD1D DUP2 PUSH2 0xCE1 JUMP JUMPDEST SWAP1 POP SWAP2 SWAP1 POP JUMP JUMPDEST PUSH32 0x4349442063616E6E6F7420626520656D70747900000000000000000000000000 PUSH1 0x0 DUP3 ADD MSTORE POP JUMP JUMPDEST PUSH1 0x0 PUSH2 0xD5A PUSH1 0x13 DUP4 PUSH2 0xB7A JUMP JUMPDEST SWAP2 POP PUSH2 0xD65 DUP3 PUSH2 0xD24 JUMP JUMPDEST PUSH1 0x20 DUP3 ADD SWAP1 POP SWAP2 SWAP1 POP JUMP JUMPDEST PUSH1 0x0 PUSH1 0x20 DUP3 ADD SWAP1 POP DUP2 DUP2 SUB PUSH1 0x0 DUP4 ADD MSTORE PUSH2 0xD89 DUP2 PUSH2 0xD4D JUMP JUMPDEST SWAP1 POP SWAP2 SWAP1 POP JUMP JUMPDEST PUSH1 0x0 DUP2 SWAP1 POP SWAP3 SWAP2 POP POP JUMP JUMPDEST PUSH1 0x0 PUSH2 0xDA6 DUP3 PUSH2 0x9FA JUMP JUMPDEST PUSH2 0xDB0 DUP2 DUP6 PUSH2 0xD90 JUMP JUMPDEST SWAP4 POP PUSH2 0xDC0 DUP2 DUP6 PUSH1 0x20 DUP7 ADD PUSH2 0xA16 JUMP JUMPDEST DUP1 DUP5 ADD SWAP2 POP POP SWAP3 SWAP2 POP POP JUMP JUMPDEST PUSH1 0x0 PUSH2 0xDD8 DUP3 DUP5 PUSH2 0xD9B JUMP JUMPDEST SWAP2 POP DUP2 SWAP1 POP SWAP3 SWAP2 POP POP JUMP JUMPDEST PUSH32 0x4E487B7100000000000000000000000000000000000000000000000000000000 PUSH1 0x0 MSTORE PUSH1 0x22 PUSH1 0x4 MSTORE PUSH1 0x24 PUSH1 0x0 REVERT JUMPDEST PUSH1 0x0 PUSH1 0x2 DUP3 DIV SWAP1 POP PUSH1 0x1 DUP3 AND DUP1 PUSH2 0xE2A JUMPI PUSH1 0x7F DUP3 AND SWAP2 POP JUMPDEST PUSH1 0x20 DUP3 LT DUP2 SUB PUSH2 0xE3D JUMPI PUSH2 0xE3C PUSH2 0xDE3 JUMP JUMPDEST JUMPDEST POP SWAP2 SWAP1 POP JUMP JUMPDEST PUSH1 0x0 DUP2 SWAP1 POP DUP2 PUSH1 0x0 MSTORE PUSH1 0x20 PUSH1 0x0 KECCAK256 SWAP1 POP SWAP2 SWAP1 POP JUMP JUMPDEST PUSH1 0x0 PUSH1 0x20 PUSH1 0x1F DUP4 ADD DIV SWAP1 POP SWAP2 SWAP1 POP JUMP JUMPDEST PUSH1 0x0 DUP3 DUP3 SHL SWAP1 POP SWAP3 SWAP2 POP POP JUMP JUMPDEST PUSH1 0x0 PUSH1 0x8 DUP4 MUL PUSH2 0xEA5 PUSH32 0xFFFFFFFFFFFFFFFFFFFFFFFFFFFFFFFFFFFFFFFFFFFFFFFFFFFFFFFFFFFFFFFF DUP3 PUSH2 0xE68 JUMP JUMPDEST PUSH2 0xEAF DUP7 DUP4 PUSH2 0xE68 JUMP JUMPDEST SWAP6 POP DUP1 NOT DUP5 AND SWAP4 POP DUP1 DUP7 AND DUP5 OR SWAP3 POP POP POP SWAP4 SWAP3 POP POP POP JUMP JUMPDEST PUSH1 0x0 DUP2 SWAP1 POP SWAP2 SWAP1 POP JUMP JUMPDEST PUSH1 0x0 PUSH2 0xEEC PUSH2 0xEE7 PUSH2 0xEE2 DUP5 PUSH2 0xBD3 JUMP JUMPDEST PUSH2 0xEC7 JUMP JUMPDEST PUSH2 0xBD3 JUMP JUMPDEST SWAP1 POP SWAP2 SWAP1 POP JUMP JUMPDEST PUSH1 0x0 DUP2 SWAP1 POP SWAP2 SWAP1 POP JUMP JUMPDEST PUSH2 0xF06 DUP4 PUSH2 0xED1 JUMP JUMPDEST PUSH2 0xF1A PUSH2 0xF12 DUP3 PUSH2 0xEF3 JUMP JUMPDEST DUP5 DUP5 SLOAD PUSH2 0xE75 JUMP JUMPDEST DUP3 SSTORE POP POP POP POP JUMP JUMPDEST PUSH1 0x0 SWAP1 JUMP JUMPDEST PUSH2 0xF2F PUSH2 0xF22 JUMP JUMPDEST PUSH2 0xF3A DUP2 DUP5 DUP5 PUSH2 0xEFD JUMP JUMPDEST POP POP POP JUMP JUMPDEST JUMPDEST DUP2 DUP2 LT ISZERO PUSH2 0xF5E JUMPI PUSH2 0xF53 PUSH1 0x0 DUP3 PUSH2 0xF27 JUMP JUMPDEST PUSH1 0x1 DUP2 ADD SWAP1 POP PUSH2 0xF40 JUMP JUMPDEST POP POP JUMP JUMPDEST PUSH1 0x1F DUP3 GT ISZERO PUSH2 0xFA3 JUMPI PUSH2 0xF74 DUP2 PUSH2 0xE43 JUMP JUMPDEST PUSH2 0xF7D DUP5 PUSH2 0xE58 JUMP JUMPDEST DUP2 ADD PUSH1 0x20 DUP6 LT ISZERO PUSH2 0xF8C JUMPI DUP2 SWAP1 POP JUMPDEST PUSH2 0xFA0 PUSH2 0xF98 DUP6 PUSH2 0xE58 JUMP JUMPDEST DUP4 ADD DUP3 PUSH2 0xF3F JUMP JUMPDEST POP POP JUMPDEST POP POP POP JUMP JUMPDEST PUSH1 0x0 DUP3 DUP3 SHR SWAP1 POP SWAP3 SWAP2 POP POP JUMP JUMPDEST PUSH1 0x0 PUSH2 0xFC6 PUSH1 0x0 NOT DUP5 PUSH1 0x8 MUL PUSH2 0xFA8 JUMP JUMPDEST NOT DUP1 DUP4 AND SWAP2 POP POP SWAP3 SWAP2 POP POP JUMP JUMPDEST PUSH1 0x0 PUSH2 0xFDF DUP4 DUP4 PUSH2 0xFB5 JUMP JUMPDEST SWAP2 POP DUP3 PUSH1 0x2 MUL DUP3 OR SWAP1 POP SWAP3 SWAP2 POP POP JUMP JUMPDEST PUSH2 0xFF8 DUP3 PUSH2 0x9FA JUMP JUMPDEST PUSH8 0xFFFFFFFFFFFFFFFF DUP2 GT ISZERO PUSH2 0x1011 JUMPI PUSH2 0x1010 PUSH2 0x7A0 JUMP JUMPDEST JUMPDEST PUSH2 0x101B DUP3 SLOAD PUSH2 0xE12 JUMP JUMPDEST PUSH2 0x1026 DUP3 DUP3 DUP6 PUSH2 0xF62 JUMP JUMPDEST PUSH1 0x0 PUSH1 0x20 SWAP1 POP PUSH1 0x1F DUP4 GT PUSH1 0x1 DUP2 EQ PUSH2 0x1059 JUMPI PUSH1 0x0 DUP5 ISZERO PUSH2 0x1047 JUMPI DUP3 DUP8 ADD MLOAD SWAP1 POP JUMPDEST PUSH2 0x1051 DUP6 DUP3 PUSH2 0xFD3 JUMP JUMPDEST DUP7 SSTORE POP PUSH2 0x10B9 JUMP JUMPDEST PUSH1 0x1F NOT DUP5 AND PUSH2 0x1067 DUP7 PUSH2 0xE43 JUMP JUMPDEST PUSH1 0x0 JUMPDEST DUP3 DUP2 LT ISZERO PUSH2 0x108F JUMPI DUP5 DUP10 ADD MLOAD DUP3 SSTORE PUSH1 0x1 DUP3 ADD SWAP2 POP PUSH1 0x20 DUP6 ADD SWAP5 POP PUSH1 0x20 DUP2 ADD SWAP1 POP PUSH2 0x106A JUMP JUMPDEST DUP7 DUP4 LT ISZERO PUSH2 0x10AC JUMPI DUP5 DUP10 ADD MLOAD PUSH2 0x10A8 PUSH1 0x1F DUP10 AND DUP3 PUSH2 0xFB5 JUMP JUMPDEST DUP4 SSTORE POP JUMPDEST PUSH1 0x1 PUSH1 0x2 DUP9 MUL ADD DUP9 SSTORE POP POP POP JUMPDEST POP POP POP POP POP POP JUMP JUMPDEST PUSH1 0x0 PUSH1 0x80 DUP3 ADD SWAP1 POP DUP2 DUP2 SUB PUSH1 0x0 DUP4 ADD MSTORE PUSH2 0x10DB DUP2 DUP8 PUSH2 0xB8B JUMP JUMPDEST SWAP1 POP DUP2 DUP2 SUB PUSH1 0x20 DUP4 ADD MSTORE PUSH2 0x10EF DUP2 DUP7 PUSH2 0xB8B JUMP JUMPDEST SWAP1 POP PUSH2 0x10FE PUSH1 0x40 DUP4 ADD DUP6 PUSH2 0xBC4 JUMP JUMPDEST PUSH2 0x110B PUSH1 0x60 DUP4 ADD DUP5 PUSH2 0xBDD JUMP JUMPDEST SWAP6 SWAP5 POP POP POP POP POP JUMP JUMPDEST PUSH32 0x57656270616765206E6F7420666F756E64000000000000000000000000000000 PUSH1 0x0 DUP3 ADD MSTORE POP JUMP JUMPDEST PUSH1 0x0 PUSH2 0x114A PUSH1 0x11 DUP4 PUSH2 0xB7A JUMP JUMPDEST SWAP2 POP PUSH2 0x1155 DUP3 PUSH2 0x1114 JUMP JUMPDEST PUSH1 0x20 DUP3 ADD SWAP1 POP SWAP2 SWAP1 POP JUMP JUMPDEST PUSH1 0x0 PUSH1 0x20 DUP3 ADD SWAP1 POP DUP2 DUP2 SUB PUSH1 0x0 DUP4 ADD MSTORE PUSH2 0x1179 DUP2 PUSH2 0x113D JUMP JUMPDEST SWAP1 POP SWAP2 SWAP1 POP JUMP INVALID LOG2 PUSH5 0x6970667358 0x22 SLT KECCAK256 0xAE BYTE 0xF CALLCODE 0x2D 0xBA SWAP11 ADDRESS 0x21 SLOAD KECCAK256 SWAP3 0x22 DUP13 0xB6 AND 0xB8 PUSH18 0x83C036605BD880E0EB6B656ADCF364736F6C PUSH4 0x4300081B STOP CALLER "
        },
        "methodIdentifiers": {
          "getUserWebpages(address)": "34b22dca",
          "getWebpage(string)": "b4ba0898",
          "storeWebpage(string,string)": "22100118",
          "userWebpages(address,uint256)": "fc227783",
          "webpages(string)": "60730a8a"
        }
      }
    }
  }
}